:100000000C9434000C9446000C9446000C9446006A
:100010000C9446000C9446000C9446000C94460048
:100020000C9446000C9446000C9446000C94460038
:100030000C9446000C9446000C9446000C94460028
:100040000C9452000C9446000C9446000C9446000C
:100050000C9446000C9446000C9446000C94460008
:100060000C9446000C94460011241FBECFEFD4E040
:10007000DEBFCDBF21E0A0E0B1E001C01D92A13004
:10008000B207E1F70E9448000C946D000C94000048
:10009000559A85E085BD18BC16BC81E080936E0042
:1000A0007894FFCF1F920F920FB60F9211248F9367
:1000B0009F93809100018F5F809300018D3331F415
:1000C0008BB190E289278BB9109200019F918F919B
:0E00D0000F900FBE0F901F901895F894FFCF61
:00000001FF
