:100000000EC01DC01CC01BC01AC01AC018C017C02B
:1000100016C015C014C013C012C011C010C01124E6
:100020001FBECFE5D1E0DEBFCDBF20E0A0E6B0E04F
:1000300001C01D92A136B207E1F71DD025C0E0CF67
:100040001F920F920FB60F9211248F939F9380915E
:1000500060008F5F809360008F3031F488B392E04E
:10006000892788BB109260009F918F910F900FBEDF
:100070000F901F901895B99A85E083BF18BC12BEE7
:0C00800082E089BF7894FFCFF894FFCF96
:00000001FF
